{
  "_format": "hh-sol-artifact-1",
  "contractName": "NFTDescriptor",
  "sourceName": "contracts/libraries/NFTDescriptor.sol",
  "abi": [
    {
      "inputs": [],
      "name": "T",
      "type": "error"
    },
    {
      "inputs": [
        {
          "components": [
            {
              "internalType": "uint256",
              "name": "tokenId",
              "type": "uint256"
            },
            {
              "internalType": "address",
              "name": "quoteTokenAddress",
              "type": "address"
            },
            {
              "internalType": "address",
              "name": "baseTokenAddress",
              "type": "address"
            },
            {
              "internalType": "string",
              "name": "quoteTokenSymbol",
              "type": "string"
            },
            {
              "internalType": "string",
              "name": "baseTokenSymbol",
              "type": "string"
            },
            {
              "internalType": "uint8",
              "name": "quoteTokenDecimals",
              "type": "uint8"
            },
            {
              "internalType": "uint8",
              "name": "baseTokenDecimals",
              "type": "uint8"
            },
            {
              "internalType": "bool",
              "name": "flipRatio",
              "type": "bool"
            },
            {
              "internalType": "int24",
              "name": "tickLower",
              "type": "int24"
            },
            {
              "internalType": "int24",
              "name": "tickUpper",
              "type": "int24"
            },
            {
              "internalType": "int24",
              "name": "tickCurrent",
              "type": "int24"
            },
            {
              "internalType": "int24",
              "name": "tickSpacing",
              "type": "int24"
            },
            {
              "internalType": "uint24",
              "name": "fee",
              "type": "uint24"
            },
            {
              "internalType": "address",
              "name": "poolAddress",
              "type": "address"
            }
          ],
          "internalType": "struct NFTDescriptor.ConstructTokenURIParams",
          "name": "params",
          "type": "tuple"
        }
      ],
      "name": "constructTokenURI",
      "outputs": [
        {
          "internalType": "string",
          "name": "",
          "type": "string"
        }
      ],
      "stateMutability": "pure",
      "type": "function"
    }
  ],
  "bytecode": "0x6080806040523461001b57615fb3908162000021823930815050f35b600080fdfe6080604052600436101561001257600080fd5b6000803560e01c63c49917d71461002857600080fd5b60031960203682011261018e576004359067ffffffffffffffff90818311610196576101c09083360301126101925761005f610234565b9282600401358452610073602484016102a6565b6020850152610084604484016102a6565b6040850152606483013582811161018e576100a590600436918601016102ea565b6060850152608483013591821161018b5761018761017b856101706101a4876100d3368983016004016102ea565b60808501526100e460a48201610331565b60a08501526100f560c48201610331565b60c085015261010660e4820161033f565b60e0850152610118610104820161034c565b61010085015261012b610124820161034c565b61012085015261013e610144820161034c565b610140850152610151610164820161034c565b610160850152610164610184820161035a565b610180850152016102a6565b6101a08201526103e2565b6040519182918261039f565b0390f35b80fd5b5080fd5b8280fd5b8380fd5b50634e487b7160e01b600052604160045260246000fd5b6060810190811067ffffffffffffffff8211176101cd57604052565b6101d561019a565b604052565b6020810190811067ffffffffffffffff8211176101cd57604052565b6040810190811067ffffffffffffffff8211176101cd57604052565b90601f8019910116810190811067ffffffffffffffff8211176101cd57604052565b604051906101c0820182811067ffffffffffffffff8211176101cd57604052565b60405190610262826101b1565b565b60405190610140820182811067ffffffffffffffff8211176101cd57604052565b60405190610160820182811067ffffffffffffffff8211176101cd57604052565b35906001600160a01b03821682036102ba57565b600080fd5b60209067ffffffffffffffff81116102dd575b601f01601f19160190565b6102e561019a565b6102d2565b81601f820112156102ba57803590610301826102bf565b9261030f6040519485610212565b828452602083830101116102ba57816000926020809301838601378301015290565b359060ff821682036102ba57565b359081151582036102ba57565b35908160020b82036102ba57565b359062ffffff821682036102ba57565b918091926000905b82821061038a575011610383575050565b6000910152565b91508060209183015181860152018291610372565b604091602082526103bf815180928160208601526020868601910161036a565b601f01601f1916010190565b906103de6020928281519485920161036a565b0190565b6106126105136105d160206105bd6105946106069661051361056b61054261018084019361051361042761042161041c885162ffffff1690565b611f1d565b83610fb2565b956105136105196104e06104db6104d56104446060890151610b6a565b61047a60808a01918a61047461046f6101a06104608751610b6a565b9301516001600160a01b031690565b61228a565b91610c7a565b9689610490610489825161087c565b9351610b6a565b602061041c6104c561046f60406104b661046f6104cf968901516001600160a01b031690565b9601516001600160a01b031690565b945162ffffff1690565b93610dcd565b9661239b565b610a3a565b986040519e8f9d8e016009907f7b226e616d65223a22000000000000000000000000000000000000000000000081520190565b906103cb565b7f222c20226465736372697074696f6e223a220000000000000000000000000000815260120190565b7f222c2022696d616765223a2022000000000000000000000000000000000000008152600d0190565b7f646174613a696d6167652f7376672b786d6c3b6261736536342c0000000000008152601a0190565b7f227d000000000000000000000000000000000000000000000000000000000000815260020190565b03916104db601f1993848101835282610212565b6040517f646174613a6170706c69636174696f6e2f6a736f6e3b6261736536342c0000006020820152938491603d8301610513565b03908101835282610212565b90565b60405190610622826101da565b60008252565b50634e487b7160e01b600052601160045260246000fd5b600190600019811461064f570190565b6103de610628565b50634e487b7160e01b600052601260045260246000fd5b8015610693575b78010000000000000000000000000000000000000000000000000490565b61069b610657565b610675565b80156106ae575b6000190490565b6106b6610657565b6106a7565b81156106c5570490565b6106cd610657565b0490565b604051906106de826101f6565b6006825260203681840137565b906106f5826102bf565b6107026040519182610212565b8281528092610713601f19916102bf565b0190602036910137565b6001811061072d575b6000190190565b610735610628565b610726565b80602b10610749575b602b0390565b610751610628565b610743565b80600510610765575b60050390565b61076d610628565b61075f565b60058110610782575b6004190190565b61078a610628565b61077b565b6004811061079f575b6003190190565b6107a7610628565b610798565b8181106107b7570390565b6107bf610628565b0390565b600290600219811161064f570190565b602090602019811161064f570190565b600190600119811161064f570190565b600490600419811161064f570190565b600a90600a19811161064f570190565b8119811161064f570190565b50634e487b7160e01b600052603260045260246000fd5b602090805115610844570190565b6103de61081f565b602190805160011015610844570190565b90602091805182101561086f57010190565b61087761081f565b010190565b8015610906576000818181805b6108ee5750610897816106eb565b935b6108a35750505090565b6108ac9061071d565b90600a906001600160f81b03198282066030811981116108e1575b0160f81b16841a6108d8848761085d565b53049081610899565b6108e9610628565b6108c7565b91506108fb600a9161063f565b910480849291610889565b50604051610913816101f6565b600181527f3000000000000000000000000000000000000000000000000000000000000000602082015290565b6040519061094d826101b1565b604082527f6768696a6b6c6d6e6f707172737475767778797a303132333435363738392b2f6040837f4142434445464748494a4b4c4d4e4f505152535455565758595a61626364656660208201520152565b7f3fffffffffffffffffffffffffffffffffffffffffffffffffffffffffffffff81116001166109d0575b60021b90565b6109d8610628565b6109ca565b7f24924924924924924924924924924924924924924924924924924924924924928111600116610a0e575b60070290565b610a16610628565b610a08565b8060001904821181151516610a2e570290565b610a36610628565b0290565b805115610b4f57610a49610940565b610a65610a60610a5984516107c3565b6003900490565b61099f565b91610a77610a72846107d3565b6106eb565b92835280815182019060208501935b828210610afd57505050600390510680600114610ad257600214610aa8575090565b7f3d0000000000000000000000000000000000000000000000000000000000000090600019015290565b507f3d3d00000000000000000000000000000000000000000000000000000000000090600119015290565b9091936004906003809401938451600190603f9082828260121c16880101518553828282600c1c16880101518386015382828260061c1688010151600286015316850101519082015301939190610a86565b50610612610615565b60ff6001911660ff811461064f570190565b906000805b835160ff821690811015610bd657610bad610ba0610b92601160f91b938861085d565b516001600160f81b03191690565b6001600160f81b03191690565b14610bc1575b610bbc90610b58565b610b6f565b90610bce610bbc91610b58565b919050610bb3565b505060ff80911680610be6575050565b610a72610bf4918551610813565b90600093845b815183821690811015610c715790610c33610b9283601160f91b610c27610ba0610b92610c51988a61085d565b14610c56575b8561085d565b96610c4b610c408261063f565b9860001a918761085d565b53610b58565b610bfa565b605c610c6b610c648c61063f565b9b8a61085d565b53610c2d565b50929450505050565b90610dbf61061292610513610db1609b966105136040519889977f54686973204e465420726570726573656e74732061206c69717569646974792060208a01527f706f736974696f6e20696e206120556e6973776170205633200000000000000060408a01528651610cf38160598c0160208b0161036a565b8901602d60f81b6059820152610d13825180936020605a8501910161036a565b017f20706f6f6c2e2000000000000000000000000000000000000000000000000000605a8201527f546865206f776e6572206f662074686973204e46542063616e206d6f6469667960618201527f206f722072656465656d2074686520706f736974696f6e2e5c6e0000000000006081820152016010907f5c6e506f6f6c20416464726573733a200000000000000000000000000000000081520190565b612e3760f11b815260020190565b03601f198101835282610212565b610ec8610ef1916105136042610dbf959698610612986040519a8b99602a610e268c7f20416464726573733a2000000000000000000000000000000000000000000000948560208301526020815194859301910161036a565b8b01612e3760f11b602a820152610e47825180936020602c8501910161036a565b0190602c820152610e6282518093602060368501910161036a565b017f5c6e46656520546965723a2000000000000000000000000000000000000000006036820152610e9c825180936020868501910161036a565b0101600c907f5c6e546f6b656e2049443a20000000000000000000000000000000000000000081520190565b7f5c6e5c6e00000000000000000000000000000000000000000000000000000000815260040190565b7fe29aa0efb88f20444953434c41494d45523a204475652064696c6967656e636581527f20697320696d7065726174697665207768656e20617373657373696e6720746860208201527f6973204e46542e204d616b65207375726520746f6b656e20616464726573736560408201527f73206d617463682074686520657870656374656420746f6b656e732c2061732060608201527f746f6b656e2073796d626f6c73206d617920626520696d6974617465642e00006080820152609e0190565b90610fc06060830151610b6a565b91610fce6080820151610b6a565b9060e0810190610fde8251151590565b90816111245761010081015160020b5b61016082019261103361102c611005865160020b90565b9260c0860194611016865160ff1690565b60a0880195611026875160ff1690565b926112a4565b9551151590565b928361111657610120015160020b935b5160020b915160ff16905160ff169161105b946112a4565b6040517f556e6973776170202d20000000000000000000000000000000000000000000006020820152948594919391602a8601611097916103cb565b6201016960ed1b81526003016110ac916103cb565b602f60f81b81526001016110bf916103cb565b6201016960ed1b81526003016110d4916103cb565b7f3c3e00000000000000000000000000000000000000000000000000000000000081526002015b611104916103cb565b03601f19810182526106129082610212565b610100015160020b93611043565b61012081015160020b610fee565b60020b8015611145575b620d89e7190590565b61114d610657565b61113c565b60020b8015611164575b620d89e80590565b61116c610657565b61115c565b60020b9060020b9081156111a1575b627fffff198114600019831416611195570590565b61119d610628565b0590565b6111a9610657565b611180565b60020b9060020b9060008213600082139083627fffff818104851183851616611225575b627fffff19936000831293908416868605841216611218575b8260008712950586129085161661120b575b058312911616610a2e570290565b611213610628565b6111fd565b611220610628565b6111eb565b61122d610628565b6111d2565b6040519061123f826101f6565b600382527f4d494e00000000000000000000000000000000000000000000000000000000006020830152565b60405190611278826101f6565b600382527f4d415800000000000000000000000000000000000000000000000000000000006020830152565b906112c06112ba826112b581611132565b6111ae565b60020b90565b908260020b9182146000146112ec575050505050156000146112e457610612611232565b61061261126b565b6112ba816112b56112fc93611152565b03611318575050506113105761061261126b565b610612611232565b9261132561061294611351565b9015611806576113406001600160a01b0361134c921661066e565b6001600160a01b031690565b611806565b60020b60008112156116e557806000035b620d89e881116116bb576001600160a01b0391600182161561169f5770ffffffffffffffffffffffffffffffffff6ffffcb933bd6fad37aa2d162d1a5940015b169160028116611683575b60048116611667575b6008811661164b575b6010811661162f575b60208116611613575b604081166115f7575b6080908181166115dc575b61010081166115c1575b61020081166115a6575b610400811661158b575b6108008116611570575b6110008116611555575b612000811661153a575b614000811661151f575b6180008116611504575b6201000081166114e9575b6202000081166114cf575b6204000081166114b5575b620800001661149a575b5060001261148c575b63ffffffff81166114835760ff60005b169060201c011690565b60ff6001611479565b611495906106a0565b611469565b6b048a170391f7dc42444e8fa26000929302901c9190611460565b6d2216e584f5fa1ea926041bedfe98909302811c92611456565b926e5d6af8dedb81196699c329225ee60402811c9261144b565b926f09aa508b5b7a84e1c677de54f3e99bc902811c92611440565b926f31be135f97d08fd981231505542fcfa602811c92611435565b926f70d869a156d2a1b890bb3df62baf32f702811c9261142b565b926fa9f746462d870fdf8a65dc1f90e061e502811c92611421565b926fd097f3bdfd2022b8845ad8f792aa582502811c92611417565b926fe7159475a2c29b7443b29c7fa6e889d902811c9261140d565b926ff3392b0822b70005940c7a398e4b70f302811c92611403565b926ff987a7253ac413176f2b074cf7815e5402811c926113f9565b926ffcbe86c7900a88aedcffc83b479aa3a402811c926113ef565b926ffe5dee046a99a2a811c461f1969c305302811c926113e5565b916fff2ea16466c96a3843ec78b326b528610260801c916113da565b916fff973b41fa98c081472e6896dfb254c00260801c916113d1565b916fffcb9843d60f6159c9db58835c9266440260801c916113c8565b916fffe5caca7e10e4e61c3624eaa0941cd00260801c916113bf565b916ffff2e50f5f656932ef12357cf3c7fdcc0260801c916113b6565b916ffff97272373d413259a46990580e213a0260801c916113ad565b70ffffffffffffffffffffffffffffffffff600160801b6113a2565b60046040517f2bc80f3a000000000000000000000000000000000000000000000000000000008152fd5b80611362565b60ff166001811061072d576000190190565b60ff166004811061079f576003190190565b60ff1680602b1061074957602b0390565b60ff1660028110611733575b6001190190565b61173b610628565b61172c565b60405190610100820182811067ffffffffffffffff821117611791575b6040528160e06000918281528260208201528260408201528260608201528260808201528260a08201528260c08201520152565b61179961019a565b61175d565b60ff168060ff036007116117b3575b60070190565b6117bb610628565b6117ad565b60ff6001911660fe811161064f570190565b60ff6002911660fd811161064f570190565b60ff168060ff036001116117f9575b60010190565b611801610628565b6117f3565b906118119291611e16565b906c0100000000000000000000000061182a83806119c1565b92109182156119ab5761183c90611a55565b915b82836000945b611997575061185661061293946116eb565b9161186383809493611d0f565b939093611983575b506118fe9192611879611740565b9384831561190a576118e46118e9916118dd6118d36118cd6118c860ff886118c260806118b06118ab6118f39d61170f565b61179e565b60ff1660208a01908152980160029052565b1661073a565b6107e3565b60ff1690565b60ff1660a08a0152565b5160ff1690565b6116eb565b60ff166040860152565b8352151560c0830152565b600060e0820152611b80565b50600960ff8216106119595761193e6118e4611928611948936116fd565b60ff1660208801908152600560808901526118dd565b60ff1660a0860152565b600460408501526118f3565b6118f3565b6119796119549161196d6020880160069052565b600560408801526116fd565b60ff166060860152565b6118fe925061199190610b58565b9161186b565b936119a3600a91610b58565b940480611844565b6119b490611a0b565b9161183e565b156102ba57565b6000198282099082810292838084109303928084039314611a02576801000000000000000091838311156102ba570990828211900360c01b910360401c1790565b50505060401c90565b620186a0906000198282099082810292838084109303928084039314611a4c57600160801b91838311156102ba570990828211900360801b910360801c1790565b50505060801c90565b72047bf19673df52e37f2410011d100000000000906000198282099082810292838084109303928084039314611a4c57600160801b91838311156102ba570990828211900360801b910360801c1790565b600160801b6000198183098260801b91828083109203918083039214611b17577003298b075b4b6a5240945790619b37fd4a90828211156102ba577f1f514b8ee5362595de309a65c03ce543f7e851e1625ea646b8fe88b81023b92d940990828211900360ff1b910360011c170290565b50507003298b075b4b6a5240945790619b37fd4a91500490565b7003298b075b4b6a5240945790619b37fd4a906000198282099082810292838084109303928084039314611a4c57600160801b91838311156102ba570990828211900360801b910360801c1790565b611b94610a726118cd602084015160ff1690565b90611ba260e0820151151590565b611cf4575b60c0810151611cd7575b611bc26118cd608083015160ff1690565b611bdb6118cd611bd660a085015160ff1690565b6117c0565b811015611bfd57806030611bf2611bf8938661085d565b5361063f565b611bc2565b50915b825115611cd257611c186118cd606085015160ff1690565b8015159081611cb8575b50611c8b575b611c53611c43611c3a8551600a900690565b60300160ff1690565b60f81b6001600160f81b03191690565b611c7d60408501611c65815160ff1690565b60ff600019820181169092529260001a92168461085d565b538251600a90048352611c00565b602e611cb260408501611c9f815160ff1690565b60ff60001982018116909252168461085d565b53611c28565b905060ff611cca604086015160ff1690565b161438611c22565b915090565b6030611ce283610836565b53602e611cee8361084c565b53611bb1565b6025611d09611d03845161071d565b8461085d565b53611ba7565b6000929160ff1660058111611d57575b50600a600481830611910490611d49575b620186a08114611d3e579190565b600a90049150600190565b611d52906107e3565b611d30565b80600560ff9210611d9d575b6004190116604d8111611d90575b600a0a908115611d83575b0438611d1f565b611d8b610657565b611d7c565b611d98610628565b611d71565b611da5610628565b611d63565b6000821282600160ff1b018212811516611ded575b827f7fffffffffffffffffffffffffffffffffffffffffffffffffffffffffffffff018213166107b7570390565b611df5610628565b611dbf565b604d8111611e09575b600a0a90565b611e11610628565b611e03565b60ff9182169392909116611e32611e2d8286611daa565b611ec8565b9384151580611ebd575b15611eae57600192839290911115611e7f57611e6c906001600160a01b03611e6587851c611dfa565b9116610a1b565b931614611e7557565b9061061290611b31565b611e9d906001600160a01b03611e9687851c611dfa565b91166106bb565b931603610262579061061290611aa6565b50506001600160a01b03169150565b506012851115611e3c565b6000808212611ed5575090565b600160ff1b82146107b7570390565b60405190611ef1826101f6565b600282527f30250000000000000000000000000000000000000000000000000000000000006020830152565b62ffffff808216801561227f57611f40611f35610255565b62ffffff9094168452565b6020830160009283825260408501938085525b81611f61875162ffffff1690565b168015611ff95782611f74855160ff1690565b9160ff831615611fd757505050611f9e611f97611f92855160ff1690565b610b58565b60ff168452565b611fa8855161063f565b8552611fd2611fc9611fbd885162ffffff1690565b62ffffff600a91160490565b62ffffff168752565b611f53565b600a900616611fe7575b50611f9e565b611f97611ff391610b58565b38611fe1565b50945050919091612008611740565b8251909390600581106121e35750918394918493600461203784516120316118cd865160ff1690565b906107ac565b106121da5760ff845b1696879261204e8551610772565b61205f6118cd6118e4845160ff1690565b11156121625780866121066118cd6106129c6120d3846120ef6121569e60406120e76118cd61212b9f6120d36121259f6121209f6118cd916121109f6120dd6118cd6120d86118dd936120c560806120bb6118e4995160ff1690565b60ff169701968752565b6120d36118cd875160ff1690565b610813565b61071d565b60ff1660a08b0152565b60ff16910152565b6121006118cd611bd6895160ff1690565b90610813565b60ff1660208b0152565b6120316118cd8751925160ff1690565b611dfa565b906106bb565b8452600160e08501525190600482111561215b57506118cd61214c9161078f565b60ff166060830152565b611b80565b905061214c565b80855161216e90610772565b815160ff1661217c906116eb565b60ff16612188916107ac565b6121066118cd6106129c6120d3846120ef6121569e60406120e76118cd61212b9f6120d36121259f6121209f6118cd916121109f6120dd6118cd6120d86118dd936120c560806120bb6118e4996118dd565b60ff6001612040565b612156939161212561212061061298956122736122696122648b6118dd602061225a6118cd61221461212b9d610756565b61224461223a6118cd6120d86122346118cd60808c016118dd8160029052565b85610813565b60ff1660a0880152565b6121006118cd6122558c5160ff1690565b6117d2565b60ff169201918252565b611720565b60ff1660408b0152565b600160c08a0152612110565b505050610612611ee4565b6001600160a01b0316604051906122a0826101b1565b602a8252604036602084013760306122b783610836565b5360786122c38361084c565b536029905b600182116122db57610612915015612336565b806f181899199a1a9b1b9c1cb0b131b232b360811b600f6123169316601081101561231c575b1a61230c848661085d565b5360041c91612329565b906122c8565b61232461081f565b612301565b801561072d576000190190565b1561233d57565b60646040517f08c379a000000000000000000000000000000000000000000000000000000000815260206004820152602060248201527f537472696e67733a20686578206c656e67746820696e73756666696369656e746044820152fd5b602081019081516123b2906001600160a01b031690565b6123c4906001600160a01b0316612726565b90604081019182516123dc906001600160a01b031690565b6123ee906001600160a01b0316612726565b918451612401906001600160a01b031690565b612413906001600160a01b031661279f565b918451612426906001600160a01b031690565b612438906001600160a01b031661279f565b8651835161244e916001600160a01b03166127f9565b612457906126b4565b8651845161246d916001600160a01b03166127f9565b612476906126fb565b8851855161248c916001600160a01b031661280e565b612495906126b4565b9188516124a8906001600160a01b031690565b86516124bc916001600160a01b031661280e565b6124c5906126fb565b938a516124d8906001600160a01b031690565b87516124ec916001600160a01b031661281f565b6124f5906126b4565b978a51612508906001600160a01b031690565b885161251c916001600160a01b031661281f565b612525906126fb565b9961252e610264565b978852602088015260408701526060860152608085015260a084015260c083015260e08201526101009283820152610120938482015261256d9061297a565b94516001600160a01b03166125819061228a565b93516001600160a01b03166125959061228a565b926101a08201516125ac906001600160a01b031690565b9260608301519060808401516101808501516125ca9062ffffff1690565b6125d390611f1d565b8583015160020b90858701516125e99060020b90565b926101608801516125fa9060020b90565b95610140998a8a015161260d9060020b90565b61261890878761268b565b99519b612623610285565b9d8e5260208e01526001600160a01b031660408d015260608c015260808b015260a08a015260020b60c089015260020b60e0880152860190612667919060020b9052565b840190612676919060000b9052565b82015261268290612899565b61061291612830565b600292830b920b8212156126a157505060001990565b60020b12156126af57600190565b600090565b601060ff610612926101029080600019048211811515166126ee575b0204811981116126e1575b0161087c565b6126e9610628565b6126db565b6126f6610628565b6126d0565b606460ff610612926101809080600019048211811515166126ee570204811981116126e1570161087c565b60881c6127316106d1565b90815190815b61274057505090565b806f181899199a1a9b1b9c1cb0b131b232b360811b600f61277e93166010811015612792575b60018510612785575b1a61230c60001985018661085d565b9081612737565b61278d610628565b61276f565b61279a61081f565b612766565b6127a76106d1565b90815190815b6127b657505090565b806f181899199a1a9b1b9c1cb0b131b232b360811b600f6127f2931660108110156127925760018510612785571a61230c60001985018661085d565b90816127ad565b60ff918261280a9260101c16610a1b565b0690565b60ff918261280a9260201c16610a1b565b60ff918261280a9260301c16610a1b565b602661061291604051938161284f86935180926020808701910161036a565b8201612864825180936020808501910161036a565b017f3c2f7376673e00000000000000000000000000000000000000000000000000006020820152036006810184520182610212565b61061261051391610dbf8151916105136128d760208301516128c8606085019687516080870193845192613b6e565b9551905160a0850151916141a8565b9161051360c082016105136129696128f0835160020b90565b94612963604061295261292560e085019961290c8b5160020b90565b61010087015160020b9061012088015160000b926144b5565b9661014085019961294c61294461293c8d5161087c565b935160020b90565b915160020b90565b91614dd6565b97519201516001600160a01b031690565b90615ab6565b956040519a8b9960208b01906103cb565b805160409081519182602092838201612a4f906081907f3c7376672077696474683d2732393027206865696768743d273530302720766981527f6577426f783d2730203020323930203530302720786d6c6e733d27687474703a60208201527f2f2f7777772e77332e6f72672f323030302f737667273e3c726563742077696460408201527f74683d27323930707827206865696768743d273530307078272066696c6c3d2760608201527f230000000000000000000000000000000000000000000000000000000000000060808201520190565b612a58916103cb565b6813979f1e17b9bb339f60b91b81526009010392601f19938481018252612a7f9082610212565b612a8890610a3a565b93608081015160a082015190848301518451928392878401612b26906063907f3c7376672077696474683d2732393027206865696768743d273530302720766981527f6577426f783d2730203020323930203530302720786d6c6e733d27687474703a60208201527f2f2f7777772e77332e6f72672f323030302f737667273e3c636972636c652063604082015262783d2760e81b60608201520190565b612b2f916103cb565b65272063793d2760d01b8152600601612b47916103cb565b7f2720723d273132307078272066696c6c3d2723000000000000000000000000008152601301612b76916103cb565b6813979f1e17b9bb339f60b91b8152600901038581018252612b989082610212565b612ba190610a3a565b60c082015160e08301518484015185517f3c7376672077696474683d2732393027206865696768743d27353030272076698882019081527f6577426f783d2730203020323930203530302720786d6c6e733d27687474703a60208201527f2f2f7777772e77332e6f72672f323030302f737667273e3c636972636c652063604082015262783d2760e81b60608201529093849391606301612c41916103cb565b65272063793d2760d01b8152600601612c59916103cb565b7f2720723d273132307078272066696c6c3d2723000000000000000000000000008152601301612c88916103cb565b6813979f1e17b9bb339f60b91b8152600901038681018252612caa9082610212565b612cb390610a3a565b906101008301516101208401519060608501518651928392898401612d54906063907f3c7376672077696474683d2732393027206865696768743d273530302720766981527f6577426f783d2730203020323930203530302720786d6c6e733d27687474703a60208201527f2f2f7777772e77332e6f72672f323030302f737667273e3c636972636c652063604082015262783d2760e81b60608201520190565b612d5d916103cb565b65272063793d2760d01b8152600601612d75916103cb565b7f2720723d273130307078272066696c6c3d2723000000000000000000000000008152601301612da4916103cb565b6813979f1e17b9bb339f60b91b8152600901038781018252612dc69082610212565b612dcf90610a3a565b925193517f3c7376672077696474683d2232393022206865696768743d22353030222076699581019586527f6577426f783d2230203020323930203530302220786d6c6e733d22687474703a60208701527f2f2f7777772e77332e6f72672f323030302f737667220000000000000000000060408701529687956056017f20786d6c6e733a786c696e6b3d27687474703a2f2f7777772e77332e6f72672f81527f313939392f786c696e6b273e00000000000000000000000000000000000000006020820152602c017f3c646566733e000000000000000000000000000000000000000000000000000081526006017f3c66696c7465722069643d226631223e3c6665496d61676520726573756c743d81527f2270302220786c696e6b3a687265663d22646174613a696d6167652f7376672b60208201527f786d6c3b6261736536342c0000000000000000000000000000000000000000006040820152604b01612f39916103cb565b7f222f3e3c6665496d61676520726573756c743d2270312220786c696e6b3a687281527f65663d22646174613a696d6167652f7376672b786d6c3b6261736536342c00006020820152603e01612f8e916103cb565b7f222f3e3c6665496d61676520726573756c743d2270322220786c696e6b3a687281527f65663d22646174613a696d6167652f7376672b786d6c3b6261736536342c00006020820152603e01612fe3916103cb565b631110179f60e11b81526004017f3c6665496d61676520726573756c743d2270332220786c696e6b3a687265663d81527f22646174613a696d6167652f7376672b786d6c3b6261736536342c00000000006020820152603b01613045916103cb565b7f22202f3e3c6665426c656e64206d6f64653d226f7665726c61792220696e3d2281527f70302220696e323d22703122202f3e3c6665426c656e64206d6f64653d22657860208201527f636c7573696f6e2220696e323d22703222202f3e3c6665426c656e64206d6f6460408201527f653d226f7665726c61792220696e323d2270332220726573756c743d22626c6560608201527f6e644f757422202f3e3c6665476175737369616e426c7572200000000000000060808201526099017f696e3d22626c656e644f75742220737464446576696174696f6e3d223432222081527f2f3e3c2f66696c7465723e203c636c6970506174682069643d22636f726e657260208201527f73223e3c726563742077696474683d2232393022206865696768743d2235303060408201527f222072783d223432222072793d22343222202f3e3c2f636c6970506174683e006060820152607f017f3c706174682069643d22746578742d706174682d612220643d224d343020313281527f204832353020413238203238203020302031203237382034302056343630204160208201527f323820323820302030203120323530203438382048343020413238203238203060408201527f203020312031322034363020563430204132382032382030203020312034302060608201527f3132207a22202f3e00000000000000000000000000000000000000000000000060808201526088017f3c706174682069643d226d696e696d61702220643d224d32333420343434433281527f3334203435372e393439203234322e323120343633203235332034363322202f6020820152601f60f91b60408201526041017f3c66696c7465722069643d22746f702d726567696f6e2d626c7572223e3c666581527f476175737369616e426c757220696e3d22536f7572636547726170686963222060208201527f737464446576696174696f6e3d22323422202f3e3c2f66696c7465723e0000006040820152605d017f3c6c696e6561724772616469656e742069643d22677261642d7570222078313d81527f2231222078323d2230222079313d2231222079323d2230223e3c73746f70206f60208201527f66667365743d22302e30222073746f702d636f6c6f723d22776869746522207360408201527f746f702d6f7061636974793d223122202f3e000000000000000000000000000060608201526072017f3c73746f70206f66667365743d222e39222073746f702d636f6c6f723d22776881527f697465222073746f702d6f7061636974793d223022202f3e3c2f6c696e65617260208201527f4772616469656e743e000000000000000000000000000000000000000000000060408201526049017f3c6c696e6561724772616469656e742069643d22677261642d646f776e22207881527f313d2230222078323d2231222079313d2230222079323d2231223e3c73746f7060208201527f206f66667365743d22302e30222073746f702d636f6c6f723d2277686974652260408201527f2073746f702d6f7061636974793d223122202f3e3c73746f70206f666673657460608201527f3d22302e39222073746f702d636f6c6f723d227768697465222073746f702d6f60808201527f7061636974793d223022202f3e3c2f6c696e6561724772616469656e743e000060a082015260be017f3c6d61736b2069643d22666164652d757022206d61736b436f6e74656e74556e81527f6974733d226f626a656374426f756e64696e67426f78223e3c7265637420776960208201527f6474683d223122206865696768743d2231222066696c6c3d2275726c2823677260408201527f61642d75702922202f3e3c2f6d61736b3e00000000000000000000000000000060608201526071017f3c6d61736b2069643d22666164652d646f776e22206d61736b436f6e74656e7481527f556e6974733d226f626a656374426f756e64696e67426f78223e3c726563742060208201527f77696474683d223122206865696768743d2231222066696c6c3d2275726c282360408201527f677261642d646f776e2922202f3e3c2f6d61736b3e000000000000000000000060608201526075017f3c6d61736b2069643d226e6f6e6522206d61736b436f6e74656e74556e69747381527f3d226f626a656374426f756e64696e67426f78223e3c7265637420776964746860208201527f3d223122206865696768743d2231222066696c6c3d22776869746522202f3e3c60408201527f2f6d61736b3e000000000000000000000000000000000000000000000000000060608201526066017f3c6c696e6561724772616469656e742069643d22677261642d73796d626f6c2281527f3e3c73746f70206f66667365743d22302e37222073746f702d636f6c6f723d2260208201527f7768697465222073746f702d6f7061636974793d223122202f3e3c73746f702060408201527f6f66667365743d222e3935222073746f702d636f6c6f723d227768697465222060608201527f73746f702d6f7061636974793d223022202f3e3c2f6c696e656172477261646960808201527f656e743e0000000000000000000000000000000000000000000000000000000060a082015260a4017f3c6d61736b2069643d22666164652d73796d626f6c22206d61736b436f6e746581527f6e74556e6974733d227573657253706163654f6e557365223e3c72656374207760208201527f696474683d22323930707822206865696768743d223230307078222066696c6c60408201527f3d2275726c2823677261642d73796d626f6c2922202f3e3c2f6d61736b3e3c2f60608201527f646566733e00000000000000000000000000000000000000000000000000000060808201526085017f3c6720636c69702d706174683d2275726c2823636f726e65727329223e0000008152601d017f3c726563742066696c6c3d2200000000000000000000000000000000000000008152600c016138ce916103cb565b7f2220783d223070782220793d22307078222077696474683d223239307078222081527f6865696768743d22353030707822202f3e00000000000000000000000000000060208201526031017f3c72656374207374796c653d2266696c7465723a2075726c282366312922207881527f3d223070782220793d22307078222077696474683d223239307078222068656960208201527f6768743d22353030707822202f3e0000000000000000000000000000000000006040820152604e017f203c67207374796c653d2266696c7465723a75726c2823746f702d726567696f81527f6e2d626c7572293b207472616e73666f726d3a7363616c6528312e35293b207460208201527f72616e73666f726d2d6f726967696e3a63656e74657220746f703b223e0000006040820152605d017f3c726563742066696c6c3d226e6f6e652220783d223070782220793d2230707881527f222077696474683d22323930707822206865696768743d22353030707822202f6020820152601f60f91b60408201526041017f3c656c6c697073652063783d22353025222063793d22307078222072783d223181527f38307078222072793d223132307078222066696c6c3d222330303022206f706160208201527f636974793d22302e383522202f3e3c2f673e000000000000000000000000000060408201526052017f3c7265637420783d22302220793d2230222077696474683d223239302220686581527f696768743d22353030222072783d223432222072793d223432222066696c6c3d60208201527f227267626128302c302c302c302922207374726f6b653d22726762612832353560408201527f2c3235352c3235352c302e322922202f3e3c2f673e000000000000000000000060608201526075010390810182526106129082610212565b604080517f3c7465787420746578742d72656e646572696e673d226f7074696d697a65537060208201527f656564223e000000000000000000000000000000000000000000000000000000918101919091527f3c74657874506174682073746172744f66667365743d222d313030252220666960458201527f6c6c3d2277686974652220666f6e742d66616d696c793d2227436f757269657260658201527f204e6577272c206d6f6e6f73706163652220666f6e742d73697a653d2231307060858201527f782220786c696e6b3a687265663d2223746578742d706174682d61223e00000060a582015293849392613c6960c28601826103cb565b64010714051160dd1b8152600501613c8190836103cb565b7f203c616e696d6174652061646469746976653d2273756d22206174747269627581527f74654e616d653d2273746172744f6666736574222066726f6d3d22302522207460208201527f6f3d22313030252220626567696e3d22307322206475723d223330732220726560408201527f70656174436f756e743d22696e646566696e69746522202f3e0000000000000060608201526079017f3c2f74657874506174683e203c74657874506174682073746172744f6666736581527f743d223025222066696c6c3d2277686974652220666f6e742d66616d696c793d60208201527f2227436f7572696572204e6577272c206d6f6e6f73706163652220666f6e742d60408201527f73697a653d22313070782220786c696e6b3a687265663d2223746578742d706160608201527f74682d61223e00000000000000000000000000000000000000000000000000006080820152608601613de0916103cb565b64010714051160dd1b8152600501613df7916103cb565b7f203c616e696d6174652061646469746976653d2273756d22206174747269627581527f74654e616d653d2273746172744f6666736574222066726f6d3d22302522207460208201527f6f3d22313030252220626567696e3d22307322206475723d223330732220726560408201527f70656174436f756e743d22696e646566696e69746522202f3e203c2f7465787460608201527f506174683e00000000000000000000000000000000000000000000000000000060808201526085017f3c74657874506174682073746172744f66667365743d22353025222066696c6c81527f3d2277686974652220666f6e742d66616d696c793d2227436f7572696572204e60208201527f6577272c206d6f6e6f73706163652220666f6e742d73697a653d22313070782260408201527f20786c696e6b3a687265663d2223746578742d706174682d61223e00000000006060820152607b01613f5790826103cb565b64010714051160dd1b8152600501613f6f90836103cb565b7f203c616e696d6174652061646469746976653d2273756d22206174747269627581527f74654e616d653d2273746172744f6666736574222066726f6d3d22302522207460208201527f6f3d22313030252220626567696e3d22307322206475723d22333073220000006040820152605d017f20726570656174436f756e743d22696e646566696e69746522202f3e3c2f746581527f7874506174683e3c74657874506174682073746172744f66667365743d222d3560208201527f3025222066696c6c3d2277686974652220666f6e742d66616d696c793d22274360408201527f6f7572696572204e6577272c206d6f6e6f73706163652220666f6e742d73697a60608201527f653d22313070782220786c696e6b3a687265663d2223746578742d706174682d60808201527f61223e000000000000000000000000000000000000000000000000000000000060a082015260a3016140ce916103cb565b64010714051160dd1b81526005016140e5916103cb565b7f203c616e696d6174652061646469746976653d2273756d22206174747269627581527f74654e616d653d2273746172744f6666736574222066726f6d3d22302522207460208201527f6f3d22313030252220626567696e3d22307322206475723d223330732220726560408201527f70656174436f756e743d22696e646566696e69746522202f3e3c2f746578745060608201527f6174683e3c2f746578743e0000000000000000000000000000000000000000006080820152608b01611104565b610dbf6143a86143916142e5956105136142f66106129761051360ed806040519c8d809c7f3c67206d61736b3d2275726c2823666164652d73796d626f6c29223e3c72656360208301527f742066696c6c3d226e6f6e652220783d223070782220793d223070782220776960408301527f6474683d22323930707822206865696768743d22323030707822202f3e203c7460608301527f65787420793d22373070782220783d2233327078222066696c6c3d227768697460808301527f652220666f6e742d66616d696c793d2227436f7572696572204e6577272c206d60a08301527f6f6e6f73706163652220666f6e742d7765696768743d223230302220666f6e7460c08301527f2d73697a653d2233367078223e0000000000000000000000000000000000000060e08301526020815194859301910161036a565b8a0101600190602f60f81b81520190565b7f3c2f746578743e3c7465787420793d2231313570782220783d2233327078222081527f66696c6c3d2277686974652220666f6e742d66616d696c793d2227436f75726960208201527f6572204e6577272c206d6f6e6f73706163652220666f6e742d7765696768743d60408201527f223230302220666f6e742d73697a653d2233367078223e000000000000000000606082015260770190565b6a1e17ba32bc3a1f1e17b39f60a91b8152600b0190565b7f3c7265637420783d2231362220793d223136222077696474683d22323538222081527f6865696768743d22343638222072783d223236222072793d223236222066696c60208201527f6c3d227267626128302c302c302c302922207374726f6b653d2272676261283260408201527f35352c3235352c3235352c302e322922202f3e00000000000000000000000000606082015260730190565b60405190614450826101f6565b600a82527f23666164652d646f776e000000000000000000000000000000000000000000006020830152565b60405190614489826101f6565b600882527f23666164652d75700000000000000000000000000000000000000000000000006020830152565b916144db918460000b6000600182146000146147db5750506144d561447c565b93614a26565b916144e590614b9e565b6040517f3c67206d61736b3d2275726c2800000000000000000000000000000000000000602082015292839261451e602d8501826103cb565b61149160f11b81526002017f207374796c653d227472616e73666f726d3a7472616e736c617465283732707881527f2c313839707829223e3c7265637420783d222d313670782220793d222d31367060208201527f78222077696474683d22313830707822206865696768743d223138307078222060408201527f66696c6c3d226e6f6e6522202f3e3c7061746820643d2200000000000000000060608201526077016145cb90836103cb565b7f22207374726f6b653d227267626128302c302c302c302e332922207374726f6b81527f652d77696474683d2233327078222066696c6c3d226e6f6e6522207374726f6b60208201527f652d6c696e656361703d22726f756e6422202f3e00000000000000000000000060408201526054017f3c2f673e3c67206d61736b3d2275726c28000000000000000000000000000000815260110161466c916103cb565b61149160f11b81526002017f207374796c653d227472616e73666f726d3a7472616e736c617465283732707881527f2c313839707829223e000000000000000000000000000000000000000000000060208201526029017f3c7265637420783d222d313670782220793d222d31367078222077696474683d81527f22313830707822206865696768743d223138307078222066696c6c3d226e6f6e60208201527f6522202f3e00000000000000000000000000000000000000000000000000000060408201526045017f3c7061746820643d2200000000000000000000000000000000000000000000008152600901614764916103cb565b7f22207374726f6b653d2272676261283235352c3235352c3235352c312922206681527f696c6c3d226e6f6e6522207374726f6b652d6c696e656361703d22726f756e6460208201527f22202f3e3c2f673e00000000000000000000000000000000000000000000000060408201526048016110fb565b50196147e9576144d5614443565b6040516147f5816101f6565b600581527f236e6f6e6500000000000000000000000000000000000000000000000000000060208201526144d5565b600291820b910b600082128015627fffff198401831216614851575b82627fffff018213166107b7570390565b614859610628565b614840565b6040519061486b826101f6565b601882527f4d312031433120393720343920313435203134352031343500000000000000006020830152565b604051906148a4826101f6565b601a82527f4d31203143312038392035372e352031343520313435203134350000000000006020830152565b604051906148dd826101f6565b601882527f4d312031433920383120363520313337203134352031343500000000000000006020830152565b60405190614916826101f6565b601982527f4d312031433137203733203733203132392031343520313435000000000000006020830152565b6040519061494f826101f6565b601982527f4d312031433235203635203831203132312031343520313435000000000000006020830152565b60405190614988826101f6565b601982527f4d312031433333203537203839203131332031343520313435000000000000006020830152565b604051906149c1826101f6565b601982527f4d312031433333203439203937203131332031343520313435000000000000006020830152565b604051906149fa826101f6565b601a82527f4d312031433431203431203130352031303520313435203134350000000000006020830152565b614a3490614a399392614824565b611171565b60020b60048113614a4d57506106126149ed565b60088113614a5e57506106126149b4565b60108113614a6f575061061261497b565b60208113614a805750610612614942565b60408113614a915750610612614909565b60808113614aa257506106126148d0565b61010012614ab257610612614897565b61061261485e565b60405190614ac7826101f6565b600282527f37330000000000000000000000000000000000000000000000000000000000006020830152565b60405190614b00826101f6565b600382527f31393000000000000000000000000000000000000000000000000000000000006020830152565b60405190614b39826101f6565b600382527f32313700000000000000000000000000000000000000000000000000000000006020830152565b60405190614b72826101f6565b600382527f33333400000000000000000000000000000000000000000000000000000000006020830152565b614ba6614aba565b614bae614af3565b91614bb7614b2c565b614bbf614b65565b9160000b600181148015614dcb575b15614cff5761061293610513614c42602095610513614c56610dbf97610513614c426105139d614ca59a600019149687600014614cf8578a5b8815614cf15782955b8915614ce95750975b15614ce15750985b6040519e8f9d8e01600c906b1e31b4b931b6329031bc1e9160a11b81520190565b67383c111031bc9e9160c11b815260080190565b7f70782220723d22347078222066696c6c3d22776869746522202f3e3c6369726381527f6c652063783d2200000000000000000000000000000000000000000000000000602082015260270190565b7f70782220723d2232347078222066696c6c3d226e6f6e6522207374726f6b653d815269113bb434ba329110179f60b11b6020820152602a0190565b905098614c21565b905097614c19565b8195614c10565b849a614c07565b506040516b1e31b4b931b6329031bc1e9160a11b6020820152938493602c8501614d28916103cb565b67383c111031bc9e9160c11b8152600801614d42916103cb565b7f70782220723d22347078222066696c6c3d22776869746522202f3e00000000008152601b016b1e31b4b931b6329031bc1e9160a11b8152600c01614d86916103cb565b67383c111031bc9e9160c11b8152600801614da0916103cb565b7f70782220723d22347078222066696c6c3d22776869746522202f3e00000000008152601b01611104565b506000198114614bce565b91614de082615534565b90614dea81615534565b8451614df5906107f3565b918351614e0190610803565b948251614e0d90610803565b91614e1791615994565b949093614e23906107f3565b614e2c906109dd565b614e359061087c565b95614e3f906107f3565b614e48906109dd565b614e519061087c565b91614e5b906107f3565b614e64906109dd565b614e6d9061087c565b9160405197889760208901614ecc90602d907f203c67207374796c653d227472616e73666f726d3a7472616e736c617465283281527f3970782c20333834707829223e0000000000000000000000000000000000000060208201520190565b6c1e3932b1ba103bb4b23a341e9160991b8152600d01614eeb916103cb565b7f707822206865696768743d2232367078222072783d22387078222072793d223881527f7078222066696c6c3d227267626128302c302c302c302e362922202f3e0000006020820152603d017f3c7465787420783d22313270782220793d22313770782220666f6e742d66616d81527f696c793d2227436f7572696572204e6577272c206d6f6e6f737061636522206660208201527f6f6e742d73697a653d2231327078222066696c6c3d227768697465223e3c747360408201527f70616e2066696c6c3d2272676261283235352c3235352c3235352c302e36292260608201527f3e49443a203c2f747370616e3e000000000000000000000000000000000000006080820152608d01614ffe916103cb565b6a1e17ba32bc3a1f1e17b39f60a91b8152600b017f203c67207374796c653d227472616e73666f726d3a7472616e736c617465283281527f3970782c20343134707829223e000000000000000000000000000000000000006020820152602d016c1e3932b1ba103bb4b23a341e9160991b8152600d0161507d916103cb565b7f707822206865696768743d2232367078222072783d22387078222072793d223881527f7078222066696c6c3d227267626128302c302c302c302e362922202f3e0000006020820152603d017f3c7465787420783d22313270782220793d22313770782220666f6e742d66616d81527f696c793d2227436f7572696572204e6577272c206d6f6e6f737061636522206660208201527f6f6e742d73697a653d2231327078222066696c6c3d227768697465223e3c747360408201527f70616e2066696c6c3d2272676261283235352c3235352c3235352c302e36292260608201527f3e4d696e205469636b3a203c2f747370616e3e000000000000000000000000006080820152609301615190916103cb565b6a1e17ba32bc3a1f1e17b39f60a91b8152600b017f203c67207374796c653d227472616e73666f726d3a7472616e736c617465283281527f3970782c20343434707829223e000000000000000000000000000000000000006020820152602d016c1e3932b1ba103bb4b23a341e9160991b8152600d0161520f916103cb565b7f707822206865696768743d2232367078222072783d22387078222072793d223881527f7078222066696c6c3d227267626128302c302c302c302e362922202f3e0000006020820152603d017f3c7465787420783d22313270782220793d22313770782220666f6e742d66616d81527f696c793d2227436f7572696572204e6577272c206d6f6e6f737061636522206660208201527f6f6e742d73697a653d2231327078222066696c6c3d227768697465223e3c747360408201527f70616e2066696c6c3d2272676261283235352c3235352c3235352c302e36292260608201527f3e4d6178205469636b3a203c2f747370616e3e000000000000000000000000006080820152609301615322916103cb565b7f3c2f746578743e3c2f673e3c67207374796c653d227472616e73666f726d3a7481527f72616e736c6174652832323670782c20343333707829223e000000000000000060208201526038017f3c726563742077696474683d223336707822206865696768743d22333670782281527f2072783d22387078222072793d22387078222066696c6c3d226e6f6e6522207360208201527f74726f6b653d2272676261283235352c3235352c3235352c302e322922202f3e60408201526060017f3c70617468207374726f6b652d6c696e656361703d22726f756e642220643d2281527f4d38203943382e30303030342032322e393439342031362e323039392032382060208201527f3237203238222066696c6c3d226e6f6e6522207374726f6b653d2277686974656040820152631110179f60e11b60608201526064017f3c636972636c65207374796c653d227472616e73666f726d3a7472616e736c6181527f746533642800000000000000000000000000000000000000000000000000000060208201526025016154b4916103cb565b7f70782c200000000000000000000000000000000000000000000000000000000081526004016154e3916103cb565b7f70782c2030707829222063783d22307078222063793d223070782220723d223481527f7078222066696c6c3d227768697465222f3e3c2f673e000000000000000000006020820152603601611104565b610612602091604051615546816101da565b60008152908060020b600081128061558d575b505061556c62ffffff610dbf921661087c565b6040519483615584879551809284808901910161036a565b840101906103cb565b9092506001915060008313627fffff19849005600019121682166155f5575b627ffffe19831216166155e8575b600003610dbf61556c62ffffff6040516155d3816101f6565b60018152602d60f81b87820152939250615559565b6155f0610628565b6155ba565b6155fd610628565b6155ac565b60020b9060020b906000811281627fffff038313811516615630575b81627fffff190383121661064f570190565b615638610628565b61561e565b6040519061564a826101f6565b600282527f32340000000000000000000000000000000000000000000000000000000000006020830152565b60405190615683826101f6565b600282527f32370000000000000000000000000000000000000000000000000000000000006020830152565b604051906156bc826101f6565b600282527f32310000000000000000000000000000000000000000000000000000000000006020830152565b604051906156f5826101f6565b600282527f31380000000000000000000000000000000000000000000000000000000000006020830152565b6040519061572e826101f6565b600282527f32360000000000000000000000000000000000000000000000000000000000006020830152565b60405190615767826101f6565b600282527f31350000000000000000000000000000000000000000000000000000000000006020830152565b604051906157a0826101f6565b600282527f32350000000000000000000000000000000000000000000000000000000000006020830152565b604051906157d9826101f6565b600282527f31330000000000000000000000000000000000000000000000000000000000006020830152565b60405190615812826101f6565b600282527f32330000000000000000000000000000000000000000000000000000000000006020830152565b6040519061584b826101f6565b600282527f31310000000000000000000000000000000000000000000000000000000000006020830152565b60405190615884826101f6565b600282527f31300000000000000000000000000000000000000000000000000000000000006020830152565b604051906158bd826101f6565b600182527f38000000000000000000000000000000000000000000000000000000000000006020830152565b604051906158f6826101f6565b600582527f31342e32350000000000000000000000000000000000000000000000000000006020830152565b6040519061592f826101f6565b600482527f31302e35000000000000000000000000000000000000000000000000000000006020830152565b60405190615968826101f6565b600182527f37000000000000000000000000000000000000000000000000000000000000006020830152565b6159aa916159a191615602565b600290810b0590565b60020b6201e847198112156159cb57506159c26158b0565b9061061261595b565b620124f7198112156159e957506159e06158b0565b90610612615922565b6161a719811215615a0657506159fd6158b0565b906106126158e9565b61138719811215615a235750615a1a615877565b906106126156e8565b6000811215615a3e5750615a3561583e565b906106126156af565b611388811215615a5a5750615a516157cc565b90610612615805565b6161a8811215615a765750615a6d61575a565b90610612615793565b620124f8811215615a935750615a8a6156e8565b90610612615721565b6201e8481315615aae57615aa56156af565b90610612615676565b615aa561563d565b90615b736118cd615b6e615b789360405160208101918783526bffffffffffffffffffffffff199060601b16604082015260348152615af4816101b1565b5190209480600091615b078115156119ba565b600160801b811015615f6b575b5080680100000000000000006002921015615f5c575b640100000000811015615f4d575b62010000811015615f3e575b610100811015615f2f575b6010811015615f20575b6004811015615f12575b1015615f0757615f7a565b6117e4565b6106a0565b1115615eff5760405161061281610dbf615e3e615d90615cf5615c5a60208601608d907f3c67207374796c653d227472616e73666f726d3a7472616e736c61746528323281527f3670782c20333932707829223e3c726563742077696474683d2233367078222060208201527f6865696768743d2233367078222072783d22387078222072793d22387078222060408201527f66696c6c3d226e6f6e6522207374726f6b653d2272676261283235352c32353560608201527f2c3235352c302e322922202f3e0000000000000000000000000000000000000060808201520190565b7f3c673e3c70617468207374796c653d227472616e73666f726d3a7472616e736c81527f617465283670782c367078292220643d224d313220304c31322e36353232203960208201527f2e35363538374c313820312e363037374c31332e373831392031302e3231383160408201527f4c32322e3339323320364c31342e343334312000000000000000000000000000606082015260730190565b7f31312e333437384c32342031324c31342e343334312031322e363532324c323281527f2e333932332031384c31332e373831392031332e373831394c31382032322e3360208201527f3932334c31322e363532322031342e343334314c31322032344c31312e33343760408201527f382031342e343334314c362032322e3339000000000000000000000000000000606082015260710190565b7f32334c31302e323138312031332e373831394c312e363037372031384c392e3581527f363538372031322e363532324c302031324c392e35363538372031312e33343760208201527f384c312e3630373720364c31302e323138312031302e323138314c3620312e3660408201527f3037374c31312e3334373820392e35363538374c313220305a222066696c6c3d606082015269113bb434ba329110179f60b11b6080820152608a0190565b7f3c616e696d6174655472616e73666f726d206174747269627574654e616d653d81527f227472616e73666f726d2220747970653d22726f74617465222066726f6d3d2260208201527f302031382031382220746f3d2233363020313820313822206475723d2231307360408201527f2220726570656174436f756e743d22696e646566696e697465222f3e3c2f673e60608201527f3c2f673e00000000000000000000000000000000000000000000000000000000608082015260840190565b610612610615565b60010160ff16615f7a565b91810160ff1691811c615b63565b600492830160ff16921c615b59565b600892830160ff16921c615b4f565b601092830160ff16921c615b44565b602092830160ff16921c615b38565b604092830160ff16921c615b2a565b60809250821c90506002615b14565b6101fe9060ff81168060ff0460021190151516615f99575b60011b1690565b615fa1610628565b615f9256fea164736f6c634300080f000a",
  "linkReferences": {},
  "deployedLinkReferences": {}
}